{"abi":[{"type":"constructor","inputs":[{"name":"_avsDirectory","type":"address","internalType":"address"},{"name":"_stakeRegistry","type":"address","internalType":"address"},{"name":"_rewardsCoordinator","type":"address","internalType":"address"},{"name":"_delegationManager","type":"address","internalType":"address"},{"name":"_crankGasCost","type":"uint256","internalType":"uint256"},{"name":"_AVSReward","type":"uint256","internalType":"uint256"},{"name":"_bridgeFee","type":"uint256","internalType":"uint256"},{"name":"_name","type":"string","internalType":"string"},{"name":"_version","type":"string","internalType":"string"}],"stateMutability":"nonpayable"},{"type":"receive","stateMutability":"payable"},{"type":"function","name":"AVSReward","inputs":[],"outputs":[{"name":"","type":"uint256","internalType":"uint256"}],"stateMutability":"view"},{"type":"function","name":"_releaseFunds","inputs":[{"name":"data","type":"bytes","internalType":"bytes"}],"outputs":[],"stateMutability":"nonpayable"},{"type":"function","name":"avsDirectory","inputs":[],"outputs":[{"name":"","type":"address","internalType":"address"}],"stateMutability":"view"},{"type":"function","name":"bridge","inputs":[{"name":"tokenAddress","type":"address","internalType":"address"},{"name":"amountIn","type":"uint256","internalType":"uint256"},{"name":"amountOut","type":"uint256","internalType":"uint256"},{"name":"destinationVault","type":"address","internalType":"address"},{"name":"destinationAddress","type":"address","internalType":"address"}],"outputs":[],"stateMutability":"payable"},{"type":"function","name":"bridgeFee","inputs":[],"outputs":[{"name":"","type":"uint256","internalType":"uint256"}],"stateMutability":"view"},{"type":"function","name":"bridgeRequestWeights","inputs":[{"name":"","type":"uint256","internalType":"uint256"}],"outputs":[{"name":"","type":"uint256","internalType":"uint256"}],"stateMutability":"view"},{"type":"function","name":"bridgeRequests","inputs":[{"name":"","type":"uint256","internalType":"uint256"}],"outputs":[{"name":"user","type":"address","internalType":"address"},{"name":"tokenAddress","type":"address","internalType":"address"},{"name":"amountIn","type":"uint256","internalType":"uint256"},{"name":"amountOut","type":"uint256","internalType":"uint256"},{"name":"destinationVault","type":"address","internalType":"address"},{"name":"destinationAddress","type":"address","internalType":"address"},{"name":"transferIndex","type":"uint256","internalType":"uint256"}],"stateMutability":"view"},{"type":"function","name":"challengeAttestation","inputs":[{"name":"fraudulentSignature","type":"bytes","internalType":"bytes"},{"name":"fraudulentBridgeRequest","type":"tuple","internalType":"struct Structs.BridgeRequestData","components":[{"name":"user","type":"address","internalType":"address"},{"name":"tokenAddress","type":"address","internalType":"address"},{"name":"amountIn","type":"uint256","internalType":"uint256"},{"name":"amountOut","type":"uint256","internalType":"uint256"},{"name":"destinationVault","type":"address","internalType":"address"},{"name":"destinationAddress","type":"address","internalType":"address"},{"name":"transferIndex","type":"uint256","internalType":"uint256"}]}],"outputs":[],"stateMutability":"nonpayable"},{"type":"function","name":"crankGasCost","inputs":[],"outputs":[{"name":"","type":"uint256","internalType":"uint256"}],"stateMutability":"view"},{"type":"function","name":"createAVSRewardsSubmission","inputs":[{"name":"rewardsSubmissions","type":"tuple[]","internalType":"struct IRewardsCoordinator.RewardsSubmission[]","components":[{"name":"strategiesAndMultipliers","type":"tuple[]","internalType":"struct IRewardsCoordinator.StrategyAndMultiplier[]","components":[{"name":"strategy","type":"address","internalType":"contract IStrategy"},{"name":"multiplier","type":"uint96","internalType":"uint96"}]},{"name":"token","type":"address","internalType":"contract IERC20"},{"name":"amount","type":"uint256","internalType":"uint256"},{"name":"startTimestamp","type":"uint32","internalType":"uint32"},{"name":"duration","type":"uint32","internalType":"uint32"}]}],"outputs":[],"stateMutability":"nonpayable"},{"type":"function","name":"currentBridgeRequestId","inputs":[],"outputs":[{"name":"","type":"uint256","internalType":"uint256"}],"stateMutability":"view"},{"type":"function","name":"deregisterOperatorFromAVS","inputs":[{"name":"operator","type":"address","internalType":"address"}],"outputs":[],"stateMutability":"nonpayable"},{"type":"function","name":"eip712Domain","inputs":[],"outputs":[{"name":"fields","type":"bytes1","internalType":"bytes1"},{"name":"name","type":"string","internalType":"string"},{"name":"version","type":"string","internalType":"string"},{"name":"chainId","type":"uint256","internalType":"uint256"},{"name":"verifyingContract","type":"address","internalType":"address"},{"name":"salt","type":"bytes32","internalType":"bytes32"},{"name":"extensions","type":"uint256[]","internalType":"uint256[]"}],"stateMutability":"view"},{"type":"function","name":"getDigest","inputs":[{"name":"data","type":"tuple","internalType":"struct Structs.BridgeRequestData","components":[{"name":"user","type":"address","internalType":"address"},{"name":"tokenAddress","type":"address","internalType":"address"},{"name":"amountIn","type":"uint256","internalType":"uint256"},{"name":"amountOut","type":"uint256","internalType":"uint256"},{"name":"destinationVault","type":"address","internalType":"address"},{"name":"destinationAddress","type":"address","internalType":"address"},{"name":"transferIndex","type":"uint256","internalType":"uint256"}]}],"outputs":[{"name":"","type":"bytes32","internalType":"bytes32"}],"stateMutability":"view"},{"type":"function","name":"getOperatorRestakedStrategies","inputs":[{"name":"_operator","type":"address","internalType":"address"}],"outputs":[{"name":"","type":"address[]","internalType":"address[]"}],"stateMutability":"view"},{"type":"function","name":"getOperatorWeight","inputs":[{"name":"operator","type":"address","internalType":"address"}],"outputs":[{"name":"","type":"uint256","internalType":"uint256"}],"stateMutability":"view"},{"type":"function","name":"getRestakeableStrategies","inputs":[],"outputs":[{"name":"","type":"address[]","internalType":"address[]"}],"stateMutability":"view"},{"type":"function","name":"getSigner","inputs":[{"name":"data","type":"tuple","internalType":"struct Structs.BridgeRequestData","components":[{"name":"user","type":"address","internalType":"address"},{"name":"tokenAddress","type":"address","internalType":"address"},{"name":"amountIn","type":"uint256","internalType":"uint256"},{"name":"amountOut","type":"uint256","internalType":"uint256"},{"name":"destinationVault","type":"address","internalType":"address"},{"name":"destinationAddress","type":"address","internalType":"address"},{"name":"transferIndex","type":"uint256","internalType":"uint256"}]},{"name":"signature","type":"bytes","internalType":"bytes"}],"outputs":[{"name":"","type":"address","internalType":"address"}],"stateMutability":"view"},{"type":"function","name":"initialize","inputs":[],"outputs":[],"stateMutability":"nonpayable"},{"type":"function","name":"nextUserTransferIndexes","inputs":[{"name":"","type":"address","internalType":"address"}],"outputs":[{"name":"","type":"uint256","internalType":"uint256"}],"stateMutability":"view"},{"type":"function","name":"operatorHasMinimumWeight","inputs":[{"name":"operator","type":"address","internalType":"address"}],"outputs":[{"name":"","type":"bool","internalType":"bool"}],"stateMutability":"view"},{"type":"function","name":"operatorResponses","inputs":[{"name":"","type":"address","internalType":"address"},{"name":"","type":"uint256","internalType":"uint256"}],"outputs":[{"name":"","type":"bool","internalType":"bool"}],"stateMutability":"view"},{"type":"function","name":"owner","inputs":[],"outputs":[{"name":"","type":"address","internalType":"address"}],"stateMutability":"view"},{"type":"function","name":"publishAttestation","inputs":[{"name":"attestation","type":"bytes","internalType":"bytes"},{"name":"_bridgeRequestId","type":"uint256","internalType":"uint256"}],"outputs":[],"stateMutability":"nonpayable"},{"type":"function","name":"registerOperatorToAVS","inputs":[{"name":"operator","type":"address","internalType":"address"},{"name":"operatorSignature","type":"tuple","internalType":"struct ISignatureUtils.SignatureWithSaltAndExpiry","components":[{"name":"signature","type":"bytes","internalType":"bytes"},{"name":"salt","type":"bytes32","internalType":"bytes32"},{"name":"expiry","type":"uint256","internalType":"uint256"}]}],"outputs":[],"stateMutability":"nonpayable"},{"type":"function","name":"releaseFunds","inputs":[{"name":"signatures","type":"bytes[]","internalType":"bytes[]"},{"name":"data","type":"tuple","internalType":"struct Structs.BridgeRequestData","components":[{"name":"user","type":"address","internalType":"address"},{"name":"tokenAddress","type":"address","internalType":"address"},{"name":"amountIn","type":"uint256","internalType":"uint256"},{"name":"amountOut","type":"uint256","internalType":"uint256"},{"name":"destinationVault","type":"address","internalType":"address"},{"name":"destinationAddress","type":"address","internalType":"address"},{"name":"transferIndex","type":"uint256","internalType":"uint256"}]}],"outputs":[],"stateMutability":"nonpayable"},{"type":"function","name":"renounceOwnership","inputs":[],"outputs":[],"stateMutability":"nonpayable"},{"type":"function","name":"setAVSReward","inputs":[{"name":"_AVSReward","type":"uint256","internalType":"uint256"}],"outputs":[],"stateMutability":"nonpayable"},{"type":"function","name":"setBridgeFee","inputs":[{"name":"_bridgeFee","type":"uint256","internalType":"uint256"}],"outputs":[],"stateMutability":"nonpayable"},{"type":"function","name":"setCrankGasCost","inputs":[{"name":"_crankGasCost","type":"uint256","internalType":"uint256"}],"outputs":[],"stateMutability":"nonpayable"},{"type":"function","name":"stakeRegistry","inputs":[],"outputs":[{"name":"","type":"address","internalType":"address"}],"stateMutability":"view"},{"type":"function","name":"transferOwnership","inputs":[{"name":"newOwner","type":"address","internalType":"address"}],"outputs":[],"stateMutability":"nonpayable"},{"type":"function","name":"updateAVSMetadataURI","inputs":[{"name":"_metadataURI","type":"string","internalType":"string"}],"outputs":[],"stateMutability":"nonpayable"},{"type":"event","name":"AVSAttestation","inputs":[{"name":"attestation","type":"bytes","indexed":true,"internalType":"bytes"},{"name":"bridgeRequestId","type":"uint256","indexed":true,"internalType":"uint256"},{"name":"operatorWeight","type":"uint256","indexed":true,"internalType":"uint256"}],"anonymous":false},{"type":"event","name":"BridgeRequest","inputs":[{"name":"user","type":"address","indexed":true,"internalType":"address"},{"name":"tokenAddress","type":"address","indexed":true,"internalType":"address"},{"name":"bridgeRequestId","type":"uint256","indexed":true,"internalType":"uint256"},{"name":"amountIn","type":"uint256","indexed":false,"internalType":"uint256"},{"name":"amountOut","type":"uint256","indexed":false,"internalType":"uint256"},{"name":"destinationVault","type":"address","indexed":false,"internalType":"address"},{"name":"destinationAddress","type":"address","indexed":false,"internalType":"address"},{"name":"transferIndex","type":"uint256","indexed":false,"internalType":"uint256"}],"anonymous":false},{"type":"event","name":"EIP712DomainChanged","inputs":[],"anonymous":false},{"type":"event","name":"FundsReleased","inputs":[{"name":"destinationVault","type":"address","indexed":true,"internalType":"address"},{"name":"destinationAddress","type":"address","indexed":true,"internalType":"address"},{"name":"amountOut","type":"uint256","indexed":true,"internalType":"uint256"}],"anonymous":false},{"type":"event","name":"Initialized","inputs":[{"name":"version","type":"uint8","indexed":false,"internalType":"uint8"}],"anonymous":false},{"type":"event","name":"OwnershipTransferred","inputs":[{"name":"previousOwner","type":"address","indexed":true,"internalType":"address"},{"name":"newOwner","type":"address","indexed":true,"internalType":"address"}],"anonymous":false},{"type":"event","name":"RewardsInitiatorUpdated","inputs":[{"name":"prevRewardsInitiator","type":"address","indexed":false,"internalType":"address"},{"name":"newRewardsInitiator","type":"address","indexed":false,"internalType":"address"}],"anonymous":false},{"type":"error","name":"ECDSAInvalidSignature","inputs":[]},{"type":"error","name":"ECDSAInvalidSignatureLength","inputs":[{"name":"length","type":"uint256","internalType":"uint256"}]},{"type":"error","name":"ECDSAInvalidSignatureS","inputs":[{"name":"s","type":"bytes32","internalType":"bytes32"}]},{"type":"error","name":"InvalidShortString","inputs":[]},{"type":"error","name":"ReentrancyGuardReentrantCall","inputs":[]},{"type":"error","name":"StringTooLong","inputs":[{"name":"str","type":"string","internalType":"string"}]}],"bytecode":{"object":"0x6101e06040523480156200001257600080fd5b5060405162003b0338038062003b0383398101604081905262000035916200038b565b84848484848d8d8d8d858581816200004f82600062000162565b610120526200006081600162000162565b61014052815160208084019190912060e052815190820120610100524660a052620000ee60e05161010051604080517f8b73c3c69bb8fe3d512ecc4cf759cc79239f7b179b0ffacaa9a75d522b39400f60208201529081019290925260608201524660808201523060a082015260009060c00160405160208183030381529060405280519060200120905090565b60805250503060c052505060016002556001600160a01b0384811661018052838116610160528281166101a05281166101c0526200012b6200019b565b505050609f959095555050609e91909155609d55505060a080546001600160a01b0319163317905550620006169650505050505050565b600060208351101562000182576200017a836200025e565b905062000195565b816200018f8482620004f0565b5060ff90505b92915050565b600354610100900460ff1615620002095760405162461bcd60e51b815260206004820152602760248201527f496e697469616c697a61626c653a20636f6e747261637420697320696e697469604482015266616c697a696e6760c81b60648201526084015b60405180910390fd5b60035460ff90811610156200025c576003805460ff191660ff9081179091556040519081527f7f26b83ff96e1f2b6a682f133852f6798a09c465da95921460cefb38474024989060200160405180910390a15b565b600080829050601f815111156200028c578260405163305a27a960e01b8152600401620002009190620005bc565b80516200029982620005f1565b179392505050565b80516001600160a01b0381168114620002b957600080fd5b919050565b634e487b7160e01b600052604160045260246000fd5b60005b83811015620002f1578181015183820152602001620002d7565b50506000910152565b600082601f8301126200030c57600080fd5b81516001600160401b0380821115620003295762000329620002be565b604051601f8301601f19908116603f01168101908282118183101715620003545762000354620002be565b816040528381528660208588010111156200036e57600080fd5b62000381846020830160208901620002d4565b9695505050505050565b60008060008060008060008060006101208a8c031215620003ab57600080fd5b620003b68a620002a1565b9850620003c660208b01620002a1565b9750620003d660408b01620002a1565b9650620003e660608b01620002a1565b60808b015160a08c015160c08d015160e08e0151939950919750955093506001600160401b03808211156200041a57600080fd5b620004288d838e01620002fa565b93506101008c01519150808211156200044057600080fd5b506200044f8c828d01620002fa565b9150509295985092959850929598565b600181811c908216806200047457607f821691505b6020821081036200049557634e487b7160e01b600052602260045260246000fd5b50919050565b601f821115620004eb576000816000526020600020601f850160051c81016020861015620004c65750805b601f850160051c820191505b81811015620004e757828155600101620004d2565b5050505b505050565b81516001600160401b038111156200050c576200050c620002be565b62000524816200051d84546200045f565b846200049b565b602080601f8311600181146200055c5760008415620005435750858301515b600019600386901b1c1916600185901b178555620004e7565b600085815260208120601f198616915b828110156200058d578886015182559484019460019091019084016200056c565b5085821015620005ac5787850151600019600388901b60f8161c191681555b5050505050600190811b01905550565b6020815260008251806020840152620005dd816040850160208701620002d4565b601f01601f19169190910160400192915050565b80516020808301519190811015620004955760001960209190910360031b1b16919050565b60805160a05160c05160e05161010051610120516101405161016051610180516101a0516101c051613412620006f1600039600061169f015260008181611fb9015261208f01526000818161038f01528181611ad601528181611b8c0152611bfc01526000818161034301528181610cbb01528181610d3301528181610db20152818161101c015281816110bb0152818161114b015281816115570152611d4d01526000611a9901526000611a6c015260006121a001526000612178015260006120d3015260006120fd0152600061212701526134126000f3fe6080604052600436106101f25760003560e01c80638da5cb5b1161010d578063c66a79c7116100a0578063e3a30deb1161006f578063e3a30deb1461064a578063e481af9d1461066a578063f2fde38b1461067f578063f64474d51461069f578063fce36c7d146106b557600080fd5b8063c66a79c71461059f578063c921d285146105bf578063d5dba76d1461060a578063dab8b9421461062a57600080fd5b80639d353670116100dc5780639d353670146104c35780639f89c8a2146104e3578063a364f4da1461055f578063a98fb3551461057f57600080fd5b80638da5cb5b1461044557806398ec1ac9146104635780639926ee7d14610483578063998cdf83146104a357600080fd5b806368304835116101855780638129fc1c116101545780638129fc1c146103dc57806382b12dd7146103f157806384b0196e146104075780638c60205e1461042f57600080fd5b806368304835146103315780636b3aa72e1461037d5780636ee1cc17146103b1578063715018a6146103c757600080fd5b80634ddb70bf116101c15780634ddb70bf146102975780635017b89f146102c4578063513b87de146102e45780635e9b2d801461031157600080fd5b806331a9bd96146101fe57806333cfb7b714610220578063456f2b9a1461025657806346a0f31a1461026957600080fd5b366101f957005b600080fd5b34801561020a57600080fd5b5061021e610219366004612508565b6106d5565b005b34801561022c57600080fd5b5061024061023b366004612536565b6106e2565b60405161024d919061255a565b60405180910390f35b61021e6102643660046125a7565b6106f3565b34801561027557600080fd5b50610289610284366004612742565b6108cd565b60405190815260200161024d565b3480156102a357600080fd5b506102896102b2366004612536565b609a6020526000908152604090205481565b3480156102d057600080fd5b5061021e6102df3660046127e3565b610989565b3480156102f057600080fd5b506102896102ff366004612508565b60a26020526000908152604090205481565b34801561031d57600080fd5b5061021e61032c366004612817565b6109c9565b34801561033d57600080fd5b506103657f000000000000000000000000000000000000000000000000000000000000000081565b6040516001600160a01b03909116815260200161024d565b34801561038957600080fd5b506103657f000000000000000000000000000000000000000000000000000000000000000081565b3480156103bd57600080fd5b50610289609e5481565b3480156103d357600080fd5b5061021e610b1a565b3480156103e857600080fd5b5061021e610b2e565b3480156103fd57600080fd5b50610289609d5481565b34801561041357600080fd5b5061041c610c53565b60405161024d97969594939291906128b6565b34801561043b57600080fd5b50610289609f5481565b34801561045157600080fd5b506036546001600160a01b0316610365565b34801561046f57600080fd5b5061028961047e366004612536565b610c99565b34801561048f57600080fd5b5061021e61049e36600461294f565b610d28565b3480156104af57600080fd5b5061021e6104be366004612508565b610d7a565b3480156104cf57600080fd5b506103656104de3660046129fa565b610d87565b3480156104ef57600080fd5b5061054c6104fe366004612508565b609c6020526000908152604090208054600182015460028301546003840154600485015460058601546006909601546001600160a01b03958616969486169593949293918216929091169087565b60405161024d9796959493929190612a49565b34801561056b57600080fd5b5061021e61057a366004612536565b610da7565b34801561058b57600080fd5b5061021e61059a366004612a8b565b610df8565b3480156105ab57600080fd5b5061021e6105ba366004612af6565b610e09565b3480156105cb57600080fd5b506105fa6105da366004612bba565b60a160209081526000928352604080842090915290825290205460ff1681565b604051901515815260200161024d565b34801561061657600080fd5b506105fa610625366004612536565b611018565b34801561063657600080fd5b5061021e610645366004612be6565b61112e565b34801561065657600080fd5b5061021e610665366004612508565b611453565b34801561067657600080fd5b50610240611460565b34801561068b57600080fd5b5061021e61069a366004612536565b61146f565b3480156106ab57600080fd5b50610289609b5481565b3480156106c157600080fd5b5061021e6106d0366004612c2a565b6114e5565b6106dd6114f7565b609e55565b60606106ed82611551565b92915050565b6106fb61187d565b609d5434146107485760405162461bcd60e51b8152602060048201526014602482015273496e636f7272656374206272696467652066656560601b60448201526064015b60405180910390fd5b61075285856118a5565b336000818152609a602090815260409182902054609b5483518981529283018890526001600160a01b03878116848601528681166060850152608084018390529351919490938a169290917f9f1e75bb13c7c1630abade6ae4149a6b09f6f150129c031d27f1b0d0a7e153799181900360a00190a46040805160e0810182523381526001600160a01b0388811660208084019182528385018a8152606085018a81528985166080870190815289861660a0880190815260c088018a8152609b80546000908152609c909752998620985189549089166001600160a01b0319918216178a55965160018a018054918a169189169190911790559351600289015591516003880155516004870180549187169186169190911790555160058601805491909516931692909217909255516006909201919091558154919061089683612cb4565b9091555050336000908152609a602052604081208054916108b683612cb4565b9190505550506108c66001600255565b5050505050565b60006106ed7f24d70767461c06c1aeacae790adba5d3dff0d413ba8713fb9926686d4c4ceef5836000015184602001518560400151866060015187608001518860a001518960c0015160405160200161096e9897969594939291909788526001600160a01b039687166020890152948616604088015260608701939093526080860191909152831660a085015290911660c083015260e08201526101000190565b60405160208183030381529060405280519060200120611965565b61099161187d565b6109bc818060200190518101906109a89190612ccd565b828060200190518101906105ba9190612dac565b6109c66001600255565b50565b6109d161187d565b60006109dd8284610d87565b6001600160a01b038116600090815260a16020908152604080832060c0870151845290915290205490915060ff16610a6f5760405162461bcd60e51b815260206004820152602f60248201527f4f70657261746f7220686173206e6f7420617474657374656420746f2074686960448201526e1cc8189c9a5919481c995c5d595cdd608a1b606482015260840161073f565b60c0808301516000908152609c6020908152604091829020825160e08101845281546001600160a01b039081168252600183015481169382019390935260028201549381019390935260038101546060840152600481015482166080840152600581015490911660a08301526006015491810191909152610aef81611992565b610af884611992565b14610b0e57610b0e82610b0a84610c99565b5050565b5050610b0a6001600255565b610b226114f7565b610b2c60006119e4565b565b600354610100900460ff1615808015610b4e5750600354600160ff909116105b80610b685750303b158015610b68575060035460ff166001145b610bcb5760405162461bcd60e51b815260206004820152602e60248201527f496e697469616c697a61626c653a20636f6e747261637420697320616c72656160448201526d191e481a5b9a5d1a585b1a5e995960921b606482015260840161073f565b6003805460ff191660011790558015610bee576003805461ff0019166101001790555b610bf6611a36565b60a054610c0b906001600160a01b031661146f565b80156109c6576003805461ff0019169055604051600181527f7f26b83ff96e1f2b6a682f133852f6798a09c465da95921460cefb38474024989060200160405180910390a150565b600060608060008060006060610c67611a65565b610c6f611a92565b60408051600080825260208201909252600f60f81b9b939a50919850469750309650945092509050565b6040516398ec1ac960e01b81526001600160a01b0382811660048301526000917f0000000000000000000000000000000000000000000000000000000000000000909116906398ec1ac990602401602060405180830381865afa158015610d04573d6000803e3d6000fd5b505050506040513d601f19601f820116820180604052508101906106ed9190612e35565b336001600160a01b037f00000000000000000000000000000000000000000000000000000000000000001614610d705760405162461bcd60e51b815260040161073f90612e4e565b610b0a8282611abf565b610d826114f7565b609d55565b600080610d93846108cd565b9050610d9f8184611b43565b949350505050565b336001600160a01b037f00000000000000000000000000000000000000000000000000000000000000001614610def5760405162461bcd60e51b815260040161073f90612e4e565b6109c681611b6d565b610e006114f7565b6109c681611be5565b610e1161187d565b6000805b8351811015610ecf576000610e4384868481518110610e3657610e36612ebe565b6020026020010151610d87565b6001600160a01b038116600090815260a16020908152604080832060c0890151845290915290205490915060ff16610eb15760405162461bcd60e51b8152602060048201526011602482015270496e76616c6964207369676e617475726560781b604482015260640161073f565b610eba81610c99565b610ec49084612ed4565b925050600101610e15565b508160600151811015610f345760405162461bcd60e51b815260206004820152602760248201527f496e73756666696369656e7420746f74616c2077656967687420746f20636f766044820152660657220737761760cc1b606482015260840161073f565b602082015160a0830151606084015160405163a9059cbb60e01b81526001600160a01b039283166004820152602481019190915291169063a9059cbb906044016020604051808303816000875af1158015610f93573d6000803e3d6000fd5b505050506040513d601f19601f82011682018060405250810190610fb79190612ee7565b50610fc0611c31565b81606001518260a001516001600160a01b031683602001516001600160a01b03167feed10c470424824e4a4309075162f10b9989088b23fbed2349698cedd44493fb60405160405180910390a450610b0a6001600255565b60007f00000000000000000000000000000000000000000000000000000000000000006001600160a01b03166340bf2fb76040518163ffffffff1660e01b8152600401602060405180830381865afa158015611078573d6000803e3d6000fd5b505050506040513d601f19601f8201168201806040525081019061109c9190612e35565b6040516398ec1ac960e01b81526001600160a01b0384811660048301527f000000000000000000000000000000000000000000000000000000000000000016906398ec1ac990602401602060405180830381865afa158015611102573d6000803e3d6000fd5b505050506040513d601f19601f820116820180604052508101906111269190612e35565b101592915050565b61113661187d565b60405163ec7fbb3160e01b81523360048201527f00000000000000000000000000000000000000000000000000000000000000006001600160a01b03169063ec7fbb3190602401602060405180830381865afa15801561119a573d6000803e3d6000fd5b505050506040513d601f19601f820116820180604052508101906111be9190612ee7565b151560011461120f5760405162461bcd60e51b815260206004820152601b60248201527f4f70657261746f72206d757374206265207468652063616c6c65720000000000604482015260640161073f565b61121833611018565b6112725760405162461bcd60e51b815260206004820152602560248201527f4f70657261746f7220646f6573206e6f742068617665206d696e696d756d2077604482015264195a59da1d60da1b606482015260840161073f565b33600090815260a16020908152604080832084845290915290205460ff16156112f05760405162461bcd60e51b815260206004820152602a60248201527f4f70657261746f722068617320616c726561647920726573706f6e64656420746044820152696f20746865207461736b60b01b606482015260840161073f565b6000818152609c6020908152604091829020825160e08101845281546001600160a01b039081168252600183015481169382019390935260028201549381019390935260038101546060840152600481015482166080840152600581015490911660a08301526006015460c08201526113699083610d87565b6001600160a01b0316336001600160a01b0316146113c95760405162461bcd60e51b815260206004820152601d60248201527f496e76616c6964206174746573746174696f6e207369676e6174757265000000604482015260640161073f565b60006113d433610c99565b90508060a2600084815260200190815260200160002060008282546113f99190612ed4565b90915550611408905033611cec565b8082846040516114189190612f09565b604051908190038120907fd9ac153298a6b6ebebd8aedc9c469f915a846bef4d45f62e33ed5885e21f235d90600090a450610b0a6001600255565b61145b6114f7565b609f55565b606061146a611d47565b905090565b6114776114f7565b6001600160a01b0381166114dc5760405162461bcd60e51b815260206004820152602660248201527f4f776e61626c653a206e6577206f776e657220697320746865207a65726f206160448201526564647265737360d01b606482015260840161073f565b6109c6816119e4565b6114ed6114f7565b610b0a8282611e84565b6036546001600160a01b03163314610b2c5760405162461bcd60e51b815260206004820181905260248201527f4f776e61626c653a2063616c6c6572206973206e6f7420746865206f776e6572604482015260640161073f565b606060007f00000000000000000000000000000000000000000000000000000000000000006001600160a01b0316631703a0186040518163ffffffff1660e01b8152600401600060405180830381865afa1580156115b3573d6000803e3d6000fd5b505050506040513d6000823e601f3d908101601f191682016040526115db9190810190612f3f565b8051519091506000816001600160401b038111156115fb576115fb612606565b604051908082528060200260200182016040528015611624578160200160208202803683370190505b50905060005b8281101561168457835180518290811061164657611646612ebe565b60200260200101516000015182828151811061166457611664612ebe565b6001600160a01b039092166020928302919091019091015260010161162a565b50604051639004134760e01b81526000906001600160a01b037f000000000000000000000000000000000000000000000000000000000000000016906390041347906116d6908990869060040161303b565b600060405180830381865afa1580156116f3573d6000803e3d6000fd5b505050506040513d6000823e601f3d908101601f1916820160405261171b9190810190613097565b90506000836001600160401b0381111561173757611737612606565b604051908082528060200260200182016040528015611760578160200160208202803683370190505b5090506000805b858110156117a757600084828151811061178357611783612ebe565b6020026020010151111561179f578161179b81612cb4565b9250505b600101611767565b506000816001600160401b038111156117c2576117c2612606565b6040519080825280602002602001820160405280156117eb578160200160208202803683370190505b50905060005b8681101561187057600085828151811061180d5761180d612ebe565b602002602001015111156118685783818151811061182d5761182d612ebe565b602002602001015182828151811061184757611847612ebe565b60200260200101906001600160a01b031690816001600160a01b0316815250505b6001016117f1565b5098975050505050505050565b600280540361189f57604051633ee5aeb560e01b815260040160405180910390fd5b60028055565b6040516323b872dd60e01b8152336004820152306024820152604481018290526000906001600160a01b038416906323b872dd906064016020604051808303816000875af11580156118fb573d6000803e3d6000fd5b505050506040513d601f19601f8201168201806040525081019061191f9190612ee7565b9050806119605760405162461bcd60e51b815260206004820152600f60248201526e151c985b9cd9995c8819985a5b1959608a1b604482015260640161073f565b505050565b60006106ed6119726120c6565b8360405161190160f01b8152600281019290925260228201526042902090565b80516020808301516040808501516060860151608087015160a088015160c089015194516000986119c7989097969101612a49565b604051602081830303815290604052805190602001209050919050565b603680546001600160a01b038381166001600160a01b0319831681179093556040519116919082907f8be0079c531659141344cd1fd0a4f28419497f9722a3daafe3b4186f6b6457e090600090a35050565b600354610100900460ff16611a5d5760405162461bcd60e51b815260040161073f90613127565b610b2c6121f1565b606061146a7f00000000000000000000000000000000000000000000000000000000000000006000612221565b606061146a7f00000000000000000000000000000000000000000000000000000000000000006001612221565b604051639926ee7d60e01b81526001600160a01b037f00000000000000000000000000000000000000000000000000000000000000001690639926ee7d90611b0d9085908590600401613172565b600060405180830381600087803b158015611b2757600080fd5b505af1158015611b3b573d6000803e3d6000fd5b505050505050565b600080600080611b5386866122cc565b925092509250611b638282612319565b5090949350505050565b6040516351b27a6d60e11b81526001600160a01b0382811660048301527f0000000000000000000000000000000000000000000000000000000000000000169063a364f4da906024015b600060405180830381600087803b158015611bd157600080fd5b505af11580156108c6573d6000803e3d6000fd5b60405163a98fb35560e01b81526001600160a01b037f0000000000000000000000000000000000000000000000000000000000000000169063a98fb35590611bb79084906004016131bd565b60003a609f54611c4191906131d0565b905080471015611c4e5750475b80156109c657604051600090339083908381818185875af1925050503d8060008114611c96576040519150601f19603f3d011682016040523d82523d6000602084013e611c9b565b606091505b5050905080610b0a5760405162461bcd60e51b815260206004820152601860248201527f4661696c656420746f2073656e64206372616e6b206665650000000000000000604482015260640161073f565b609e5447811115611cfa5750475b6000826001600160a01b03168260405160006040518083038185875af1925050503d8060008114611b3b576040519150601f19603f3d011682016040523d82523d6000602084013e611b3b565b606060007f00000000000000000000000000000000000000000000000000000000000000006001600160a01b0316631703a0186040518163ffffffff1660e01b8152600401600060405180830381865afa158015611da9573d6000803e3d6000fd5b505050506040513d6000823e601f3d908101601f19168201604052611dd19190810190612f3f565b905060008160000151516001600160401b03811115611df257611df2612606565b604051908082528060200260200182016040528015611e1b578160200160208202803683370190505b50905060005b825151811015611e7d578251805182908110611e3f57611e3f612ebe565b602002602001015160000151828281518110611e5d57611e5d612ebe565b6001600160a01b0390921660209283029190910190910152600101611e21565b5092915050565b60005b8181101561207757828282818110611ea157611ea1612ebe565b9050602002810190611eb391906131e7565b611ec4906040810190602001612536565b6001600160a01b03166323b872dd3330868686818110611ee657611ee6612ebe565b9050602002810190611ef891906131e7565b604080516001600160e01b031960e087901b1681526001600160a01b039485166004820152939092166024840152013560448201526064016020604051808303816000875af1158015611f4f573d6000803e3d6000fd5b505050506040513d601f19601f82011682018060405250810190611f739190612ee7565b50828282818110611f8657611f86612ebe565b9050602002810190611f9891906131e7565b611fa9906040810190602001612536565b6001600160a01b031663095ea7b37f0000000000000000000000000000000000000000000000000000000000000000858585818110611fea57611fea612ebe565b9050602002810190611ffc91906131e7565b604080516001600160e01b031960e086901b1681526001600160a01b039093166004840152013560248201526044016020604051808303816000875af115801561204a573d6000803e3d6000fd5b505050506040513d601f19601f8201168201806040525081019061206e9190612ee7565b50600101611e87565b5060405163fce36c7d60e01b81526001600160a01b037f0000000000000000000000000000000000000000000000000000000000000000169063fce36c7d90611b0d908590859060040161328c565b6000306001600160a01b037f00000000000000000000000000000000000000000000000000000000000000001614801561211f57507f000000000000000000000000000000000000000000000000000000000000000046145b1561214957507f000000000000000000000000000000000000000000000000000000000000000090565b61146a604080517f8b73c3c69bb8fe3d512ecc4cf759cc79239f7b179b0ffacaa9a75d522b39400f60208201527f0000000000000000000000000000000000000000000000000000000000000000918101919091527f000000000000000000000000000000000000000000000000000000000000000060608201524660808201523060a082015260009060c00160405160208183030381529060405280519060200120905090565b600354610100900460ff166122185760405162461bcd60e51b815260040161073f90613127565b610b2c336119e4565b606060ff831461223b57612234836123d2565b90506106ed565b8180546122479061338c565b80601f01602080910402602001604051908101604052809291908181526020018280546122739061338c565b80156122c05780601f10612295576101008083540402835291602001916122c0565b820191906000526020600020905b8154815290600101906020018083116122a357829003601f168201915b505050505090506106ed565b600080600083516041036123065760208401516040850151606086015160001a6122f888828585612411565b955095509550505050612312565b50508151600091506002905b9250925092565b600082600381111561232d5761232d6133c6565b03612336575050565b600182600381111561234a5761234a6133c6565b036123685760405163f645eedf60e01b815260040160405180910390fd5b600282600381111561237c5761237c6133c6565b0361239d5760405163fce698f760e01b81526004810182905260240161073f565b60038260038111156123b1576123b16133c6565b03610b0a576040516335e2f38360e21b81526004810182905260240161073f565b606060006123df836124e0565b604080516020808252818301909252919250600091906020820181803683375050509182525060208101929092525090565b600080807f7fffffffffffffffffffffffffffffff5d576e7357a4501ddfe92f46681b20a084111561244c57506000915060039050826124d6565b604080516000808252602082018084528a905260ff891692820192909252606081018790526080810186905260019060a0016020604051602081039080840390855afa1580156124a0573d6000803e3d6000fd5b5050604051601f1901519150506001600160a01b0381166124cc575060009250600191508290506124d6565b9250600091508190505b9450945094915050565b600060ff8216601f8111156106ed57604051632cd44ac360e21b815260040160405180910390fd5b60006020828403121561251a57600080fd5b5035919050565b6001600160a01b03811681146109c657600080fd5b60006020828403121561254857600080fd5b813561255381612521565b9392505050565b6020808252825182820181905260009190848201906040850190845b8181101561259b5783516001600160a01b031683529284019291840191600101612576565b50909695505050505050565b600080600080600060a086880312156125bf57600080fd5b85356125ca81612521565b9450602086013593506040860135925060608601356125e881612521565b915060808601356125f881612521565b809150509295509295909350565b634e487b7160e01b600052604160045260246000fd5b60405160e081016001600160401b038111828210171561263e5761263e612606565b60405290565b604051602081016001600160401b038111828210171561263e5761263e612606565b604080519081016001600160401b038111828210171561263e5761263e612606565b604051601f8201601f191681016001600160401b03811182821017156126b0576126b0612606565b604052919050565b600060e082840312156126ca57600080fd5b6126d261261c565b905081356126df81612521565b815260208201356126ef81612521565b806020830152506040820135604082015260608201356060820152608082013561271881612521565b608082015260a082013561272b81612521565b8060a08301525060c082013560c082015292915050565b600060e0828403121561275457600080fd5b61255383836126b8565b60006001600160401b0382111561277757612777612606565b50601f01601f191660200190565b60006127986127938461275e565b612688565b90508281528383830111156127ac57600080fd5b828260208301376000602084830101529392505050565b600082601f8301126127d457600080fd5b61255383833560208501612785565b6000602082840312156127f557600080fd5b81356001600160401b0381111561280b57600080fd5b610d9f848285016127c3565b600080610100838503121561282b57600080fd5b82356001600160401b0381111561284157600080fd5b61284d858286016127c3565b92505061285d84602085016126b8565b90509250929050565b60005b83811015612881578181015183820152602001612869565b50506000910152565b600081518084526128a2816020860160208601612866565b601f01601f19169290920160200192915050565b60ff60f81b881681526000602060e060208401526128d760e084018a61288a565b83810360408501526128e9818a61288a565b606085018990526001600160a01b038816608086015260a0850187905284810360c08601528551808252602080880193509091019060005b8181101561293d57835183529284019291840191600101612921565b50909c9b505050505050505050505050565b6000806040838503121561296257600080fd5b823561296d81612521565b915060208301356001600160401b038082111561298957600080fd5b908401906060828703121561299d57600080fd5b6040516060810181811083821117156129b8576129b8612606565b6040528235828111156129ca57600080fd5b6129d6888286016127c3565b82525060208301356020820152604083013560408201528093505050509250929050565b6000806101008385031215612a0e57600080fd5b612a1884846126b8565b915060e08301356001600160401b03811115612a3357600080fd5b612a3f858286016127c3565b9150509250929050565b6001600160a01b0397881681529587166020870152604086019490945260608501929092528416608084015290921660a082015260c081019190915260e00190565b600060208284031215612a9d57600080fd5b81356001600160401b03811115612ab357600080fd5b8201601f81018413612ac457600080fd5b610d9f84823560208401612785565b60006001600160401b03821115612aec57612aec612606565b5060051b60200190565b6000806101008385031215612b0a57600080fd5b82356001600160401b0380821115612b2157600080fd5b818501915085601f830112612b3557600080fd5b81356020612b4561279383612ad3565b82815260059290921b84018101918181019089841115612b6457600080fd5b8286015b84811015612b9c57803586811115612b805760008081fd5b612b8e8c86838b01016127c3565b845250918301918301612b68565b509650612bad9050888883016126b8565b9450505050509250929050565b60008060408385031215612bcd57600080fd5b8235612bd881612521565b946020939093013593505050565b60008060408385031215612bf957600080fd5b82356001600160401b03811115612c0f57600080fd5b612c1b858286016127c3565b95602094909401359450505050565b60008060208385031215612c3d57600080fd5b82356001600160401b0380821115612c5457600080fd5b818501915085601f830112612c6857600080fd5b813581811115612c7757600080fd5b8660208260051b8501011115612c8c57600080fd5b60209290920196919550909350505050565b634e487b7160e01b600052601160045260246000fd5b600060018201612cc657612cc6612c9e565b5060010190565b60006020808385031215612ce057600080fd5b82516001600160401b0380821115612cf757600080fd5b818501915085601f830112612d0b57600080fd5b8151612d1961279382612ad3565b81815260059190911b83018401908481019088831115612d3857600080fd5b8585015b8381101561187057805185811115612d545760008081fd5b8601603f81018b13612d665760008081fd5b878101516040612d786127938361275e565b8281528d82848601011115612d8d5760008081fd5b612d9c838c8301848701612866565b8652505050918601918601612d3c565b600060e08284031215612dbe57600080fd5b612dc661261c565b8251612dd181612521565b81526020830151612de181612521565b8060208301525060408301516040820152606083015160608201526080830151612e0a81612521565b608082015260a0830151612e1d81612521565b60a082015260c0928301519281019290925250919050565b600060208284031215612e4757600080fd5b5051919050565b6020808252604a908201527f4543445341536572766963654d616e61676572426173652e6f6e6c795374616b60408201527f6552656769737472793a2063616c6c6572206973206e6f7420746865207374616060820152696b65526567697374727960b01b608082015260a00190565b634e487b7160e01b600052603260045260246000fd5b808201808211156106ed576106ed612c9e565b600060208284031215612ef957600080fd5b8151801515811461255357600080fd5b60008251612f1b818460208701612866565b9190910192915050565b6bffffffffffffffffffffffff811681146109c657600080fd5b60006020808385031215612f5257600080fd5b82516001600160401b0380821115612f6957600080fd5b8185019150828287031215612f7d57600080fd5b612f85612644565b825182811115612f9457600080fd5b80840193505086601f840112612fa957600080fd5b82519150612fb961279383612ad3565b82815260069290921b83018401918481019088841115612fd857600080fd5b938501935b8385101561302e576040858a031215612ff65760008081fd5b612ffe612666565b855161300981612521565b81528587015161301881612f25565b8188015282526040949094019390850190612fdd565b8252509695505050505050565b6001600160a01b038381168252604060208084018290528451918401829052600092858201929091906060860190855b8181101561308957855185168352948301949183019160010161306b565b509098975050505050505050565b600060208083850312156130aa57600080fd5b82516001600160401b038111156130c057600080fd5b8301601f810185136130d157600080fd5b80516130df61279382612ad3565b81815260059190911b820183019083810190878311156130fe57600080fd5b928401925b8284101561311c57835182529284019290840190613103565b979650505050505050565b6020808252602b908201527f496e697469616c697a61626c653a20636f6e7472616374206973206e6f74206960408201526a6e697469616c697a696e6760a81b606082015260800190565b60018060a01b038316815260406020820152600082516060604084015261319c60a084018261288a565b90506020840151606084015260408401516080840152809150509392505050565b602081526000612553602083018461288a565b80820281158282048414176106ed576106ed612c9e565b60008235609e19833603018112612f1b57600080fd5b803561320881612521565b919050565b8183526000602080850194508260005b8581101561326d57813561323081612521565b6001600160a01b031687528183013561324881612f25565b6bffffffffffffffffffffffff1687840152604096870196919091019060010161321d565b509495945050505050565b803563ffffffff8116811461320857600080fd5b60208082528181018390526000906040808401600586901b8501820187855b8881101561308957878303603f190184528135368b9003609e190181126132d157600080fd5b8a0160a0813536839003601e190181126132ea57600080fd5b820188810190356001600160401b0381111561330557600080fd5b8060061b360382131561331757600080fd5b828752613327838801828461320d565b925050506133368883016131fd565b6001600160a01b03168886015281870135878601526060613358818401613278565b63ffffffff1690860152608061336f838201613278565b63ffffffff169501949094525092850192908501906001016132ab565b600181811c908216806133a057607f821691505b6020821081036133c057634e487b7160e01b600052602260045260246000fd5b50919050565b634e487b7160e01b600052602160045260246000fdfea264697066735822122097c9580d3f8af4abd69c483166caf9bec83ab9ad14041902c3b44dcde276b3fa64736f6c63430008180033","linkReferences":{}},"methodIdentifiers":{"AVSReward()":"6ee1cc17","_releaseFunds(bytes)":"5017b89f","avsDirectory()":"6b3aa72e","bridge(address,uint256,uint256,address,address)":"456f2b9a","bridgeFee()":"82b12dd7","bridgeRequestWeights(uint256)":"513b87de","bridgeRequests(uint256)":"9f89c8a2","challengeAttestation(bytes,(address,address,uint256,uint256,address,address,uint256))":"5e9b2d80","crankGasCost()":"8c60205e","createAVSRewardsSubmission(((address,uint96)[],address,uint256,uint32,uint32)[])":"fce36c7d","currentBridgeRequestId()":"f64474d5","deregisterOperatorFromAVS(address)":"a364f4da","eip712Domain()":"84b0196e","getDigest((address,address,uint256,uint256,address,address,uint256))":"46a0f31a","getOperatorRestakedStrategies(address)":"33cfb7b7","getOperatorWeight(address)":"98ec1ac9","getRestakeableStrategies()":"e481af9d","getSigner((address,address,uint256,uint256,address,address,uint256),bytes)":"9d353670","initialize()":"8129fc1c","nextUserTransferIndexes(address)":"4ddb70bf","operatorHasMinimumWeight(address)":"d5dba76d","operatorResponses(address,uint256)":"c921d285","owner()":"8da5cb5b","publishAttestation(bytes,uint256)":"dab8b942","registerOperatorToAVS(address,(bytes,bytes32,uint256))":"9926ee7d","releaseFunds(bytes[],(address,address,uint256,uint256,address,address,uint256))":"c66a79c7","renounceOwnership()":"715018a6","setAVSReward(uint256)":"31a9bd96","setBridgeFee(uint256)":"998cdf83","setCrankGasCost(uint256)":"e3a30deb","stakeRegistry()":"68304835","transferOwnership(address)":"f2fde38b","updateAVSMetadataURI(string)":"a98fb355"},"id":75}