{"abi":[{"type":"constructor","inputs":[{"name":"_crankGasCost","type":"uint256","internalType":"uint256"},{"name":"_AVSReward","type":"uint256","internalType":"uint256"},{"name":"_bridgeFee","type":"uint256","internalType":"uint256"},{"name":"_name","type":"string","internalType":"string"},{"name":"_version","type":"string","internalType":"string"}],"stateMutability":"nonpayable"},{"type":"receive","stateMutability":"payable"},{"type":"function","name":"AVSReward","inputs":[],"outputs":[{"name":"","type":"uint256","internalType":"uint256"}],"stateMutability":"view"},{"type":"function","name":"_releaseFunds","inputs":[{"name":"data","type":"bytes","internalType":"bytes"}],"outputs":[],"stateMutability":"nonpayable"},{"type":"function","name":"bridge","inputs":[{"name":"tokenAddress","type":"address","internalType":"address"},{"name":"amountIn","type":"uint256","internalType":"uint256"},{"name":"amountOut","type":"uint256","internalType":"uint256"},{"name":"destinationVault","type":"address","internalType":"address"},{"name":"destinationAddress","type":"address","internalType":"address"}],"outputs":[],"stateMutability":"payable"},{"type":"function","name":"bridgeFee","inputs":[],"outputs":[{"name":"","type":"uint256","internalType":"uint256"}],"stateMutability":"view"},{"type":"function","name":"bridgeRequestWeights","inputs":[{"name":"","type":"uint256","internalType":"uint256"}],"outputs":[{"name":"","type":"uint256","internalType":"uint256"}],"stateMutability":"view"},{"type":"function","name":"bridgeRequests","inputs":[{"name":"","type":"uint256","internalType":"uint256"}],"outputs":[{"name":"user","type":"address","internalType":"address"},{"name":"tokenAddress","type":"address","internalType":"address"},{"name":"amountIn","type":"uint256","internalType":"uint256"},{"name":"amountOut","type":"uint256","internalType":"uint256"},{"name":"destinationVault","type":"address","internalType":"address"},{"name":"destinationAddress","type":"address","internalType":"address"},{"name":"transferIndex","type":"uint256","internalType":"uint256"}],"stateMutability":"view"},{"type":"function","name":"crankGasCost","inputs":[],"outputs":[{"name":"","type":"uint256","internalType":"uint256"}],"stateMutability":"view"},{"type":"function","name":"currentBridgeRequestId","inputs":[],"outputs":[{"name":"","type":"uint256","internalType":"uint256"}],"stateMutability":"view"},{"type":"function","name":"eip712Domain","inputs":[],"outputs":[{"name":"fields","type":"bytes1","internalType":"bytes1"},{"name":"name","type":"string","internalType":"string"},{"name":"version","type":"string","internalType":"string"},{"name":"chainId","type":"uint256","internalType":"uint256"},{"name":"verifyingContract","type":"address","internalType":"address"},{"name":"salt","type":"bytes32","internalType":"bytes32"},{"name":"extensions","type":"uint256[]","internalType":"uint256[]"}],"stateMutability":"view"},{"type":"function","name":"getDigest","inputs":[{"name":"data","type":"tuple","internalType":"struct Structs.BridgeRequestData","components":[{"name":"user","type":"address","internalType":"address"},{"name":"tokenAddress","type":"address","internalType":"address"},{"name":"amountIn","type":"uint256","internalType":"uint256"},{"name":"amountOut","type":"uint256","internalType":"uint256"},{"name":"destinationVault","type":"address","internalType":"address"},{"name":"destinationAddress","type":"address","internalType":"address"},{"name":"transferIndex","type":"uint256","internalType":"uint256"}]}],"outputs":[{"name":"","type":"bytes32","internalType":"bytes32"}],"stateMutability":"view"},{"type":"function","name":"getOperatorWeight","inputs":[{"name":"operator","type":"address","internalType":"address"}],"outputs":[{"name":"","type":"uint256","internalType":"uint256"}],"stateMutability":"view"},{"type":"function","name":"getSigner","inputs":[{"name":"data","type":"tuple","internalType":"struct Structs.BridgeRequestData","components":[{"name":"user","type":"address","internalType":"address"},{"name":"tokenAddress","type":"address","internalType":"address"},{"name":"amountIn","type":"uint256","internalType":"uint256"},{"name":"amountOut","type":"uint256","internalType":"uint256"},{"name":"destinationVault","type":"address","internalType":"address"},{"name":"destinationAddress","type":"address","internalType":"address"},{"name":"transferIndex","type":"uint256","internalType":"uint256"}]},{"name":"signature","type":"bytes","internalType":"bytes"}],"outputs":[{"name":"","type":"address","internalType":"address"}],"stateMutability":"view"},{"type":"function","name":"initialize","inputs":[],"outputs":[],"stateMutability":"nonpayable"},{"type":"function","name":"nextUserTransferIndexes","inputs":[{"name":"","type":"address","internalType":"address"}],"outputs":[{"name":"","type":"uint256","internalType":"uint256"}],"stateMutability":"view"},{"type":"function","name":"operatorHasMinimumWeight","inputs":[{"name":"operator","type":"address","internalType":"address"}],"outputs":[{"name":"","type":"bool","internalType":"bool"}],"stateMutability":"view"},{"type":"function","name":"operatorResponses","inputs":[{"name":"","type":"address","internalType":"address"},{"name":"","type":"uint256","internalType":"uint256"}],"outputs":[{"name":"","type":"bool","internalType":"bool"}],"stateMutability":"view"},{"type":"function","name":"operatorWeights","inputs":[{"name":"","type":"address","internalType":"address"}],"outputs":[{"name":"","type":"uint256","internalType":"uint256"}],"stateMutability":"view"},{"type":"function","name":"owner","inputs":[],"outputs":[{"name":"","type":"address","internalType":"address"}],"stateMutability":"view"},{"type":"function","name":"publishAttestation","inputs":[{"name":"attestation","type":"bytes","internalType":"bytes"},{"name":"_bridgeRequestId","type":"uint256","internalType":"uint256"}],"outputs":[],"stateMutability":"nonpayable"},{"type":"function","name":"releaseFunds","inputs":[{"name":"signatures","type":"bytes[]","internalType":"bytes[]"},{"name":"data","type":"tuple","internalType":"struct Structs.BridgeRequestData","components":[{"name":"user","type":"address","internalType":"address"},{"name":"tokenAddress","type":"address","internalType":"address"},{"name":"amountIn","type":"uint256","internalType":"uint256"},{"name":"amountOut","type":"uint256","internalType":"uint256"},{"name":"destinationVault","type":"address","internalType":"address"},{"name":"destinationAddress","type":"address","internalType":"address"},{"name":"transferIndex","type":"uint256","internalType":"uint256"}]}],"outputs":[],"stateMutability":"nonpayable"},{"type":"function","name":"renounceOwnership","inputs":[],"outputs":[],"stateMutability":"nonpayable"},{"type":"function","name":"setAVSReward","inputs":[{"name":"_AVSReward","type":"uint256","internalType":"uint256"}],"outputs":[],"stateMutability":"nonpayable"},{"type":"function","name":"setBridgeFee","inputs":[{"name":"_bridgeFee","type":"uint256","internalType":"uint256"}],"outputs":[],"stateMutability":"nonpayable"},{"type":"function","name":"setCrankGasCost","inputs":[{"name":"_crankGasCost","type":"uint256","internalType":"uint256"}],"outputs":[],"stateMutability":"nonpayable"},{"type":"function","name":"setOperatorWeight","inputs":[{"name":"operator","type":"address","internalType":"address"},{"name":"weight","type":"uint256","internalType":"uint256"}],"outputs":[],"stateMutability":"nonpayable"},{"type":"function","name":"transferOwnership","inputs":[{"name":"newOwner","type":"address","internalType":"address"}],"outputs":[],"stateMutability":"nonpayable"},{"type":"event","name":"AVSAttestation","inputs":[{"name":"attestation","type":"bytes","indexed":true,"internalType":"bytes"},{"name":"bridgeRequestId","type":"uint256","indexed":true,"internalType":"uint256"},{"name":"operatorWeight","type":"uint256","indexed":true,"internalType":"uint256"}],"anonymous":false},{"type":"event","name":"BridgeRequest","inputs":[{"name":"user","type":"address","indexed":true,"internalType":"address"},{"name":"tokenAddress","type":"address","indexed":true,"internalType":"address"},{"name":"bridgeRequestId","type":"uint256","indexed":true,"internalType":"uint256"},{"name":"amountIn","type":"uint256","indexed":false,"internalType":"uint256"},{"name":"amountOut","type":"uint256","indexed":false,"internalType":"uint256"},{"name":"destinationVault","type":"address","indexed":false,"internalType":"address"},{"name":"destinationAddress","type":"address","indexed":false,"internalType":"address"},{"name":"transferIndex","type":"uint256","indexed":false,"internalType":"uint256"}],"anonymous":false},{"type":"event","name":"EIP712DomainChanged","inputs":[],"anonymous":false},{"type":"event","name":"FundsReleased","inputs":[{"name":"destinationVault","type":"address","indexed":true,"internalType":"address"},{"name":"destinationAddress","type":"address","indexed":true,"internalType":"address"},{"name":"amountOut","type":"uint256","indexed":true,"internalType":"uint256"}],"anonymous":false},{"type":"event","name":"Initialized","inputs":[{"name":"version","type":"uint8","indexed":false,"internalType":"uint8"}],"anonymous":false},{"type":"event","name":"OwnershipTransferred","inputs":[{"name":"previousOwner","type":"address","indexed":true,"internalType":"address"},{"name":"newOwner","type":"address","indexed":true,"internalType":"address"}],"anonymous":false},{"type":"error","name":"ECDSAInvalidSignature","inputs":[]},{"type":"error","name":"ECDSAInvalidSignatureLength","inputs":[{"name":"length","type":"uint256","internalType":"uint256"}]},{"type":"error","name":"ECDSAInvalidSignatureS","inputs":[{"name":"s","type":"bytes32","internalType":"bytes32"}]},{"type":"error","name":"InvalidShortString","inputs":[]},{"type":"error","name":"ReentrancyGuardReentrantCall","inputs":[]},{"type":"error","name":"StringTooLong","inputs":[{"name":"str","type":"string","internalType":"string"}]}],"bytecode":{"object":"0x6101606040523480156200001257600080fd5b50604051620022b9380380620022b9833981016040819052620000359162000278565b8484848484818181816200004b82600062000126565b610120526200005c81600162000126565b61014052815160208084019190912060e052815190820120610100524660a052620000ea60e05161010051604080517f8b73c3c69bb8fe3d512ecc4cf759cc79239f7b179b0ffacaa9a75d522b39400f60208201529081019290925260608201524660808201523060a082015260009060c00160405160208183030381529060405280519060200120905090565b60805250503060c052505060016002555050606d92909255606c55606b555050606e80546001600160a01b0319163317905550620004b8915050565b600060208351101562000146576200013e836200015f565b905062000159565b8162000153848262000392565b5060ff90505b92915050565b600080829050601f8151111562000196578260405163305a27a960e01b81526004016200018d91906200045e565b60405180910390fd5b8051620001a38262000493565b179392505050565b634e487b7160e01b600052604160045260246000fd5b60005b83811015620001de578181015183820152602001620001c4565b50506000910152565b600082601f830112620001f957600080fd5b81516001600160401b0380821115620002165762000216620001ab565b604051601f8301601f19908116603f01168101908282118183101715620002415762000241620001ab565b816040528381528660208588010111156200025b57600080fd5b6200026e846020830160208901620001c1565b9695505050505050565b600080600080600060a086880312156200029157600080fd5b855160208701516040880151606089015192975090955093506001600160401b0380821115620002c057600080fd5b620002ce89838a01620001e7565b93506080880151915080821115620002e557600080fd5b50620002f488828901620001e7565b9150509295509295909350565b600181811c908216806200031657607f821691505b6020821081036200033757634e487b7160e01b600052602260045260246000fd5b50919050565b601f8211156200038d576000816000526020600020601f850160051c81016020861015620003685750805b601f850160051c820191505b81811015620003895782815560010162000374565b5050505b505050565b81516001600160401b03811115620003ae57620003ae620001ab565b620003c681620003bf845462000301565b846200033d565b602080601f831160018114620003fe5760008415620003e55750858301515b600019600386901b1c1916600185901b17855562000389565b600085815260208120601f198616915b828110156200042f578886015182559484019460019091019084016200040e565b50858210156200044e5787850151600019600388901b60f8161c191681555b5050505050600190811b01905550565b60208152600082518060208401526200047f816040850160208701620001c1565b601f01601f19169190910160400192915050565b80516020808301519190811015620003375760001960209190910360031b1b16919050565b60805160a05160c05160e051610100516101205161014051611da662000513600039600061112a015260006110f8015260006112540152600061122c01526000611187015260006111b1015260006111db0152611da66000f3fe6080604052600436106101855760003560e01c80638da5cb5b116100d1578063c66a79c71161008a578063dab8b94211610064578063dab8b94214610550578063e3a30deb14610570578063f2fde38b14610590578063f64474d5146105b057600080fd5b8063c66a79c7146104ab578063c921d285146104cb578063d5dba76d1461051657600080fd5b80638da5cb5b1461032757806398ec1ac914610359578063998cdf831461038f5780639d353670146103af5780639f89c8a2146103cf578063b457c25a1461047e57600080fd5b8063513b87de1161013e5780638129fc1c116101185780638129fc1c146102be57806382b12dd7146102d357806384b0196e146102e95780638c60205e1461031157600080fd5b8063513b87de146102665780636ee1cc1714610293578063715018a6146102a957600080fd5b80630e6b11101461019157806331a9bd96146101b3578063456f2b9a146101d357806346a0f31a146101e65780634ddb70bf146102195780635017b89f1461024657600080fd5b3661018c57005b600080fd5b34801561019d57600080fd5b506101b16101ac3660046115d1565b6105c6565b005b3480156101bf57600080fd5b506101b16101ce3660046115fd565b6105ea565b6101b16101e1366004611616565b6105f7565b3480156101f257600080fd5b5061020661020136600461176f565b6107d1565b6040519081526020015b60405180910390f35b34801561022557600080fd5b50610206610234366004611792565b60686020526000908152604090205481565b34801561025257600080fd5b506101b161026136600461182d565b610893565b34801561027257600080fd5b506102066102813660046115fd565b60706020526000908152604090205481565b34801561029f57600080fd5b50610206606c5481565b3480156102b557600080fd5b506101b16108d3565b3480156102ca57600080fd5b506101b16108e7565b3480156102df57600080fd5b50610206606b5481565b3480156102f557600080fd5b506102fe610a0c565b60405161021097969594939291906118b2565b34801561031d57600080fd5b50610206606d5481565b34801561033357600080fd5b506036546001600160a01b03165b6040516001600160a01b039091168152602001610210565b34801561036557600080fd5b50610206610374366004611792565b6001600160a01b031660009081526071602052604090205490565b34801561039b57600080fd5b506101b16103aa3660046115fd565b610a52565b3480156103bb57600080fd5b506103416103ca36600461194b565b610a5f565b3480156103db57600080fd5b506104386103ea3660046115fd565b606a6020526000908152604090208054600182015460028301546003840154600485015460058601546006909601546001600160a01b03958616969486169593949293918216929091169087565b604080516001600160a01b039889168152968816602088015286019490945260608501929092528416608084015290921660a082015260c081019190915260e001610210565b34801561048a57600080fd5b50610206610499366004611792565b60716020526000908152604090205481565b3480156104b757600080fd5b506101b16104c63660046119bf565b610a7f565b3480156104d757600080fd5b506105066104e63660046115d1565b606f60209081526000928352604080842090915290825290205460ff1681565b6040519015158152602001610210565b34801561052257600080fd5b50610506610531366004611792565b6001600160a01b03166000908152607160205260409020546001111590565b34801561055c57600080fd5b506101b161056b366004611a84565b610c34565b34801561057c57600080fd5b506101b161058b3660046115fd565b610e7e565b34801561059c57600080fd5b506101b16105ab366004611792565b610e8b565b3480156105bc57600080fd5b5061020660695481565b6105ce610f01565b6001600160a01b03909116600090815260716020526040902055565b6105f2610f01565b606c55565b6105ff610f5b565b606b54341461064c5760405162461bcd60e51b8152602060048201526014602482015273496e636f7272656374206272696467652066656560601b60448201526064015b60405180910390fd5b6106568585610f83565b336000818152606860209081526040918290205460695483518981529283018890526001600160a01b03878116848601528681166060850152608084018390529351919490938a169290917f9f1e75bb13c7c1630abade6ae4149a6b09f6f150129c031d27f1b0d0a7e153799181900360a00190a46040805160e0810182523381526001600160a01b0388811660208084019182528385018a8152606085018a81528985166080870190815289861660a0880190815260c088018a8152606980546000908152606a909752998620985189549089166001600160a01b0319918216178a55965160018a018054918a169189169190911790559351600289015591516003880155516004870180549187169186169190911790555160058601805491909516931692909217909255516006909201919091558154919061079a83611adf565b90915550503360009081526068602052604081208054916107ba83611adf565b9190505550506107ca6001600255565b5050505050565b600061088d7f24d70767461c06c1aeacae790adba5d3dff0d413ba8713fb9926686d4c4ceef5836000015184602001518560400151866060015187608001518860a001518960c001516040516020016108729897969594939291909788526001600160a01b039687166020890152948616604088015260608701939093526080860191909152831660a085015290911660c083015260e08201526101000190565b60405160208183030381529060405280519060200120611043565b92915050565b61089b610f5b565b6108c6818060200190518101906108b29190611af8565b828060200190518101906104c69190611be5565b6108d06001600255565b50565b6108db610f01565b6108e56000611070565b565b600354610100900460ff16158080156109075750600354600160ff909116105b806109215750303b158015610921575060035460ff166001145b6109845760405162461bcd60e51b815260206004820152602e60248201527f496e697469616c697a61626c653a20636f6e747261637420697320616c72656160448201526d191e481a5b9a5d1a585b1a5e995960921b6064820152608401610643565b6003805460ff1916600117905580156109a7576003805461ff0019166101001790555b6109af6110c2565b606e546109c4906001600160a01b0316610e8b565b80156108d0576003805461ff0019169055604051600181527f7f26b83ff96e1f2b6a682f133852f6798a09c465da95921460cefb38474024989060200160405180910390a150565b600060608060008060006060610a206110f1565b610a28611123565b60408051600080825260208201909252600f60f81b9b939a50919850469750309650945092509050565b610a5a610f01565b606b55565b600080610a6b846107d1565b9050610a778184611150565b949350505050565b610a87610f5b565b6000805b8351811015610aef576000610ab984868481518110610aac57610aac611c6e565b6020026020010151610a5f565b9050610ada816001600160a01b031660009081526071602052604090205490565b610ae49084611c84565b925050600101610a8b565b508160600151811015610b545760405162461bcd60e51b815260206004820152602760248201527f496e73756666696369656e7420746f74616c2077656967687420746f20636f766044820152660657220737761760cc1b6064820152608401610643565b602082015160a0830151606084015160405163a9059cbb60e01b81526001600160a01b039283166004820152602481019190915291169063a9059cbb906044016020604051808303816000875af1158015610bb3573d6000803e3d6000fd5b505050506040513d601f19601f82011682018060405250810190610bd79190611c97565b5081606001518260a001516001600160a01b031683602001516001600160a01b03167feed10c470424824e4a4309075162f10b9989088b23fbed2349698cedd44493fb60405160405180910390a450610c306001600255565b5050565b610c3c610f5b565b33600090815260716020526040902054610ca75760405162461bcd60e51b815260206004820152602660248201527f4f70657261746f7220776569676874206d75737420626520677265617465722060448201526507468616e20360d41b6064820152608401610643565b336000908152606f6020908152604080832084845290915290205460ff1615610d255760405162461bcd60e51b815260206004820152602a60248201527f4f70657261746f722068617320616c726561647920726573706f6e64656420746044820152696f20746865207461736b60b01b6064820152608401610643565b6000818152606a6020908152604091829020825160e08101845281546001600160a01b039081168252600183015481169382019390935260028201549381019390935260038101546060840152600481015482166080840152600581015490911660a08301526006015460c0820152610d9e9083610a5f565b6001600160a01b0316336001600160a01b031614610dfe5760405162461bcd60e51b815260206004820152601d60248201527f496e76616c6964206174746573746174696f6e207369676e61747572650000006044820152606401610643565b3360009081526071602090815260408083205484845260709092528220805491928392610e2c908490611c84565b92505081905550808284604051610e439190611cb9565b604051908190038120907fd9ac153298a6b6ebebd8aedc9c469f915a846bef4d45f62e33ed5885e21f235d90600090a450610c306001600255565b610e86610f01565b606d55565b610e93610f01565b6001600160a01b038116610ef85760405162461bcd60e51b815260206004820152602660248201527f4f776e61626c653a206e6577206f776e657220697320746865207a65726f206160448201526564647265737360d01b6064820152608401610643565b6108d081611070565b6036546001600160a01b031633146108e55760405162461bcd60e51b815260206004820181905260248201527f4f776e61626c653a2063616c6c6572206973206e6f7420746865206f776e65726044820152606401610643565b6002805403610f7d57604051633ee5aeb560e01b815260040160405180910390fd5b60028055565b6040516323b872dd60e01b8152336004820152306024820152604481018290526000906001600160a01b038416906323b872dd906064016020604051808303816000875af1158015610fd9573d6000803e3d6000fd5b505050506040513d601f19601f82011682018060405250810190610ffd9190611c97565b90508061103e5760405162461bcd60e51b815260206004820152600f60248201526e151c985b9cd9995c8819985a5b1959608a1b6044820152606401610643565b505050565b600061088d61105061117a565b8360405161190160f01b8152600281019290925260228201526042902090565b603680546001600160a01b038381166001600160a01b0319831681179093556040519116919082907f8be0079c531659141344cd1fd0a4f28419497f9722a3daafe3b4186f6b6457e090600090a35050565b600354610100900460ff166110e95760405162461bcd60e51b815260040161064390611cd5565b6108e56112a5565b606061111e7f000000000000000000000000000000000000000000000000000000000000000060006112d5565b905090565b606061111e7f000000000000000000000000000000000000000000000000000000000000000060016112d5565b6000806000806111608686611380565b92509250925061117082826113cd565b5090949350505050565b6000306001600160a01b037f0000000000000000000000000000000000000000000000000000000000000000161480156111d357507f000000000000000000000000000000000000000000000000000000000000000046145b156111fd57507f000000000000000000000000000000000000000000000000000000000000000090565b61111e604080517f8b73c3c69bb8fe3d512ecc4cf759cc79239f7b179b0ffacaa9a75d522b39400f60208201527f0000000000000000000000000000000000000000000000000000000000000000918101919091527f000000000000000000000000000000000000000000000000000000000000000060608201524660808201523060a082015260009060c00160405160208183030381529060405280519060200120905090565b600354610100900460ff166112cc5760405162461bcd60e51b815260040161064390611cd5565b6108e533611070565b606060ff83146112ef576112e883611486565b905061088d565b8180546112fb90611d20565b80601f016020809104026020016040519081016040528092919081815260200182805461132790611d20565b80156113745780601f1061134957610100808354040283529160200191611374565b820191906000526020600020905b81548152906001019060200180831161135757829003601f168201915b5050505050905061088d565b600080600083516041036113ba5760208401516040850151606086015160001a6113ac888285856114c5565b9550955095505050506113c6565b50508151600091506002905b9250925092565b60008260038111156113e1576113e1611d5a565b036113ea575050565b60018260038111156113fe576113fe611d5a565b0361141c5760405163f645eedf60e01b815260040160405180910390fd5b600282600381111561143057611430611d5a565b036114515760405163fce698f760e01b815260048101829052602401610643565b600382600381111561146557611465611d5a565b03610c30576040516335e2f38360e21b815260048101829052602401610643565b6060600061149383611594565b604080516020808252818301909252919250600091906020820181803683375050509182525060208101929092525090565b600080807f7fffffffffffffffffffffffffffffff5d576e7357a4501ddfe92f46681b20a0841115611500575060009150600390508261158a565b604080516000808252602082018084528a905260ff891692820192909252606081018790526080810186905260019060a0016020604051602081039080840390855afa158015611554573d6000803e3d6000fd5b5050604051601f1901519150506001600160a01b0381166115805750600092506001915082905061158a565b9250600091508190505b9450945094915050565b600060ff8216601f81111561088d57604051632cd44ac360e21b815260040160405180910390fd5b6001600160a01b03811681146108d057600080fd5b600080604083850312156115e457600080fd5b82356115ef816115bc565b946020939093013593505050565b60006020828403121561160f57600080fd5b5035919050565b600080600080600060a0868803121561162e57600080fd5b8535611639816115bc565b945060208601359350604086013592506060860135611657816115bc565b91506080860135611667816115bc565b809150509295509295909350565b634e487b7160e01b600052604160045260246000fd5b60405160e0810167ffffffffffffffff811182821017156116ae576116ae611675565b60405290565b604051601f8201601f1916810167ffffffffffffffff811182821017156116dd576116dd611675565b604052919050565b600060e082840312156116f757600080fd5b6116ff61168b565b9050813561170c816115bc565b8152602082013561171c816115bc565b8060208301525060408201356040820152606082013560608201526080820135611745816115bc565b608082015260a0820135611758816115bc565b8060a08301525060c082013560c082015292915050565b600060e0828403121561178157600080fd5b61178b83836116e5565b9392505050565b6000602082840312156117a457600080fd5b813561178b816115bc565b600067ffffffffffffffff8211156117c9576117c9611675565b50601f01601f191660200190565b600082601f8301126117e857600080fd5b81356117fb6117f6826117af565b6116b4565b81815284602083860101111561181057600080fd5b816020850160208301376000918101602001919091529392505050565b60006020828403121561183f57600080fd5b813567ffffffffffffffff81111561185657600080fd5b610a77848285016117d7565b60005b8381101561187d578181015183820152602001611865565b50506000910152565b6000815180845261189e816020860160208601611862565b601f01601f19169290920160200192915050565b60ff60f81b881681526000602060e060208401526118d360e084018a611886565b83810360408501526118e5818a611886565b606085018990526001600160a01b038816608086015260a0850187905284810360c08601528551808252602080880193509091019060005b818110156119395783518352928401929184019160010161191d565b50909c9b505050505050505050505050565b600080610100838503121561195f57600080fd5b61196984846116e5565b915060e083013567ffffffffffffffff81111561198557600080fd5b611991858286016117d7565b9150509250929050565b600067ffffffffffffffff8211156119b5576119b5611675565b5060051b60200190565b60008061010083850312156119d357600080fd5b823567ffffffffffffffff808211156119eb57600080fd5b818501915085601f8301126119ff57600080fd5b81356020611a0f6117f68361199b565b82815260059290921b84018101918181019089841115611a2e57600080fd5b8286015b84811015611a6657803586811115611a4a5760008081fd5b611a588c86838b01016117d7565b845250918301918301611a32565b509650611a779050888883016116e5565b9450505050509250929050565b60008060408385031215611a9757600080fd5b823567ffffffffffffffff811115611aae57600080fd5b611aba858286016117d7565b95602094909401359450505050565b634e487b7160e01b600052601160045260246000fd5b600060018201611af157611af1611ac9565b5060010190565b60006020808385031215611b0b57600080fd5b825167ffffffffffffffff80821115611b2357600080fd5b818501915085601f830112611b3757600080fd5b8151611b456117f68261199b565b81815260059190911b83018401908481019088831115611b6457600080fd5b8585015b83811015611bd857805185811115611b805760008081fd5b8601603f81018b13611b925760008081fd5b878101516040611ba46117f6836117af565b8281528d82848601011115611bb95760008081fd5b611bc8838c8301848701611862565b8652505050918601918601611b68565b5098975050505050505050565b600060e08284031215611bf757600080fd5b611bff61168b565b8251611c0a816115bc565b81526020830151611c1a816115bc565b8060208301525060408301516040820152606083015160608201526080830151611c43816115bc565b608082015260a0830151611c56816115bc565b60a082015260c0928301519281019290925250919050565b634e487b7160e01b600052603260045260246000fd5b8082018082111561088d5761088d611ac9565b600060208284031215611ca957600080fd5b8151801515811461178b57600080fd5b60008251611ccb818460208701611862565b9190910192915050565b6020808252602b908201527f496e697469616c697a61626c653a20636f6e7472616374206973206e6f74206960408201526a6e697469616c697a696e6760a81b606082015260800190565b600181811c90821680611d3457607f821691505b602082108103611d5457634e487b7160e01b600052602260045260246000fd5b50919050565b634e487b7160e01b600052602160045260246000fdfea264697066735822122032dd71fcb18a8d9a11560a6616c387da1d37821b34722aa408215419644d712964736f6c63430008180033","linkReferences":{}},"methodIdentifiers":{"AVSReward()":"6ee1cc17","_releaseFunds(bytes)":"5017b89f","bridge(address,uint256,uint256,address,address)":"456f2b9a","bridgeFee()":"82b12dd7","bridgeRequestWeights(uint256)":"513b87de","bridgeRequests(uint256)":"9f89c8a2","crankGasCost()":"8c60205e","currentBridgeRequestId()":"f64474d5","eip712Domain()":"84b0196e","getDigest((address,address,uint256,uint256,address,address,uint256))":"46a0f31a","getOperatorWeight(address)":"98ec1ac9","getSigner((address,address,uint256,uint256,address,address,uint256),bytes)":"9d353670","initialize()":"8129fc1c","nextUserTransferIndexes(address)":"4ddb70bf","operatorHasMinimumWeight(address)":"d5dba76d","operatorResponses(address,uint256)":"c921d285","operatorWeights(address)":"b457c25a","owner()":"8da5cb5b","publishAttestation(bytes,uint256)":"dab8b942","releaseFunds(bytes[],(address,address,uint256,uint256,address,address,uint256))":"c66a79c7","renounceOwnership()":"715018a6","setAVSReward(uint256)":"31a9bd96","setBridgeFee(uint256)":"998cdf83","setCrankGasCost(uint256)":"e3a30deb","setOperatorWeight(address,uint256)":"0e6b1110","transferOwnership(address)":"f2fde38b"},"id":77}