{"abi":[{"type":"constructor","inputs":[{"name":"name","type":"string","internalType":"string"},{"name":"version","type":"string","internalType":"string"}],"stateMutability":"nonpayable"},{"type":"function","name":"eip712Domain","inputs":[],"outputs":[{"name":"fields","type":"bytes1","internalType":"bytes1"},{"name":"name","type":"string","internalType":"string"},{"name":"version","type":"string","internalType":"string"},{"name":"chainId","type":"uint256","internalType":"uint256"},{"name":"verifyingContract","type":"address","internalType":"address"},{"name":"salt","type":"bytes32","internalType":"bytes32"},{"name":"extensions","type":"uint256[]","internalType":"uint256[]"}],"stateMutability":"view"},{"type":"function","name":"getDigest","inputs":[{"name":"data","type":"tuple","internalType":"struct Structs.BridgeRequestData","components":[{"name":"user","type":"address","internalType":"address"},{"name":"tokenAddress","type":"address","internalType":"address"},{"name":"amountIn","type":"uint256","internalType":"uint256"},{"name":"amountOut","type":"uint256","internalType":"uint256"},{"name":"destinationVault","type":"address","internalType":"address"},{"name":"destinationAddress","type":"address","internalType":"address"},{"name":"transferIndex","type":"uint256","internalType":"uint256"}]}],"outputs":[{"name":"","type":"bytes32","internalType":"bytes32"}],"stateMutability":"view"},{"type":"function","name":"getSigner","inputs":[{"name":"data","type":"tuple","internalType":"struct Structs.BridgeRequestData","components":[{"name":"user","type":"address","internalType":"address"},{"name":"tokenAddress","type":"address","internalType":"address"},{"name":"amountIn","type":"uint256","internalType":"uint256"},{"name":"amountOut","type":"uint256","internalType":"uint256"},{"name":"destinationVault","type":"address","internalType":"address"},{"name":"destinationAddress","type":"address","internalType":"address"},{"name":"transferIndex","type":"uint256","internalType":"uint256"}]},{"name":"signature","type":"bytes","internalType":"bytes"}],"outputs":[{"name":"","type":"address","internalType":"address"}],"stateMutability":"view"},{"type":"event","name":"EIP712DomainChanged","inputs":[],"anonymous":false},{"type":"error","name":"ECDSAInvalidSignature","inputs":[]},{"type":"error","name":"ECDSAInvalidSignatureLength","inputs":[{"name":"length","type":"uint256","internalType":"uint256"}]},{"type":"error","name":"ECDSAInvalidSignatureS","inputs":[{"name":"s","type":"bytes32","internalType":"bytes32"}]},{"type":"error","name":"InvalidShortString","inputs":[]},{"type":"error","name":"StringTooLong","inputs":[{"name":"str","type":"string","internalType":"string"}]}],"bytecode":{"object":"0x6101606040523480156200001257600080fd5b5060405162000ea138038062000ea1833981016040819052620000359162000247565b818162000044826000620000f5565b6101205262000055816001620000f5565b61014052815160208084019190912060e052815190820120610100524660a052620000e360e05161010051604080517f8b73c3c69bb8fe3d512ecc4cf759cc79239f7b179b0ffacaa9a75d522b39400f60208201529081019290925260608201524660808201523060a082015260009060c00160405160208183030381529060405280519060200120905090565b60805250503060c05250620004689050565b600060208351101562000115576200010d836200012e565b905062000128565b8162000122848262000342565b5060ff90505b92915050565b600080829050601f8151111562000165578260405163305a27a960e01b81526004016200015c91906200040e565b60405180910390fd5b8051620001728262000443565b179392505050565b634e487b7160e01b600052604160045260246000fd5b60005b83811015620001ad57818101518382015260200162000193565b50506000910152565b600082601f830112620001c857600080fd5b81516001600160401b0380821115620001e557620001e56200017a565b604051601f8301601f19908116603f011681019082821181831017156200021057620002106200017a565b816040528381528660208588010111156200022a57600080fd5b6200023d84602083016020890162000190565b9695505050505050565b600080604083850312156200025b57600080fd5b82516001600160401b03808211156200027357600080fd5b6200028186838701620001b6565b935060208501519150808211156200029857600080fd5b50620002a785828601620001b6565b9150509250929050565b600181811c90821680620002c657607f821691505b602082108103620002e757634e487b7160e01b600052602260045260246000fd5b50919050565b601f8211156200033d576000816000526020600020601f850160051c81016020861015620003185750805b601f850160051c820191505b81811015620003395782815560010162000324565b5050505b505050565b81516001600160401b038111156200035e576200035e6200017a565b62000376816200036f8454620002b1565b84620002ed565b602080601f831160018114620003ae5760008415620003955750858301515b600019600386901b1c1916600185901b17855562000339565b600085815260208120601f198616915b82811015620003df57888601518255948401946001909101908401620003be565b5085821015620003fe5787850151600019600388901b60f8161c191681555b5050505050600190811b01905550565b60208152600082518060208401526200042f81604085016020870162000190565b601f01601f19169190910160400192915050565b80516020808301519190811015620002e75760001960209190910360031b1b16919050565b60805160a05160c05160e0516101005161012051610140516109de620004c360003960006102400152600061020e0152600061036a015260006103420152600061029d015260006102c7015260006102f101526109de6000f3fe608060405234801561001057600080fd5b50600436106100415760003560e01c806346a0f31a1461004657806384b0196e1461006c5780639d35367014610087575b600080fd5b6100596100543660046107ac565b6100b2565b6040519081526020015b60405180910390f35b610074610174565b6040516100639796959493929190610815565b61009a6100953660046108ae565b6101ba565b6040516001600160a01b039091168152602001610063565b600061016e7f24d70767461c06c1aeacae790adba5d3dff0d413ba8713fb9926686d4c4ceef5836000015184602001518560400151866060015187608001518860a001518960c001516040516020016101539897969594939291909788526001600160a01b039687166020890152948616604088015260608701939093526080860191909152831660a085015290911660c083015260e08201526101000190565b604051602081830303815290604052805190602001206101da565b92915050565b600060608060008060006060610188610207565b610190610239565b60408051600080825260208201909252600f60f81b9b939a50919850469750309650945092509050565b6000806101c6846100b2565b90506101d28184610266565b949350505050565b600061016e6101e7610290565b8360405161190160f01b8152600281019290925260228201526042902090565b60606102347f000000000000000000000000000000000000000000000000000000000000000060006103bb565b905090565b60606102347f000000000000000000000000000000000000000000000000000000000000000060016103bb565b6000806000806102768686610466565b92509250925061028682826104b3565b5090949350505050565b6000306001600160a01b037f0000000000000000000000000000000000000000000000000000000000000000161480156102e957507f000000000000000000000000000000000000000000000000000000000000000046145b1561031357507f000000000000000000000000000000000000000000000000000000000000000090565b610234604080517f8b73c3c69bb8fe3d512ecc4cf759cc79239f7b179b0ffacaa9a75d522b39400f60208201527f0000000000000000000000000000000000000000000000000000000000000000918101919091527f000000000000000000000000000000000000000000000000000000000000000060608201524660808201523060a082015260009060c00160405160208183030381529060405280519060200120905090565b606060ff83146103d5576103ce83610575565b905061016e565b8180546103e190610958565b80601f016020809104026020016040519081016040528092919081815260200182805461040d90610958565b801561045a5780601f1061042f5761010080835404028352916020019161045a565b820191906000526020600020905b81548152906001019060200180831161043d57829003601f168201915b5050505050905061016e565b600080600083516041036104a05760208401516040850151606086015160001a610492888285856105b4565b9550955095505050506104ac565b50508151600091506002905b9250925092565b60008260038111156104c7576104c7610992565b036104d0575050565b60018260038111156104e4576104e4610992565b036105025760405163f645eedf60e01b815260040160405180910390fd5b600282600381111561051657610516610992565b0361053c5760405163fce698f760e01b8152600481018290526024015b60405180910390fd5b600382600381111561055057610550610992565b03610571576040516335e2f38360e21b815260048101829052602401610533565b5050565b6060600061058283610683565b604080516020808252818301909252919250600091906020820181803683375050509182525060208101929092525090565b600080807f7fffffffffffffffffffffffffffffff5d576e7357a4501ddfe92f46681b20a08411156105ef5750600091506003905082610679565b604080516000808252602082018084528a905260ff891692820192909252606081018790526080810186905260019060a0016020604051602081039080840390855afa158015610643573d6000803e3d6000fd5b5050604051601f1901519150506001600160a01b03811661066f57506000925060019150829050610679565b9250600091508190505b9450945094915050565b600060ff8216601f81111561016e57604051632cd44ac360e21b815260040160405180910390fd5b634e487b7160e01b600052604160045260246000fd5b604051601f8201601f1916810167ffffffffffffffff811182821017156106ea576106ea6106ab565b604052919050565b80356001600160a01b038116811461070957600080fd5b919050565b600060e0828403121561072057600080fd5b60405160e0810181811067ffffffffffffffff82111715610743576107436106ab565b604052905080610752836106f2565b8152610760602084016106f2565b60208201526040830135604082015260608301356060820152610785608084016106f2565b608082015261079660a084016106f2565b60a082015260c083013560c08201525092915050565b600060e082840312156107be57600080fd5b6107c8838361070e565b9392505050565b6000815180845260005b818110156107f5576020818501810151868301820152016107d9565b506000602082860101526020601f19601f83011685010191505092915050565b60ff60f81b881681526000602060e0602084015261083660e084018a6107cf565b8381036040850152610848818a6107cf565b606085018990526001600160a01b038816608086015260a0850187905284810360c08601528551808252602080880193509091019060005b8181101561089c57835183529284019291840191600101610880565b50909c9b505050505050505050505050565b60008061010083850312156108c257600080fd5b6108cc848461070e565b915060e083013567ffffffffffffffff808211156108e957600080fd5b818501915085601f8301126108fd57600080fd5b81358181111561090f5761090f6106ab565b610922601f8201601f19166020016106c1565b915080825286602082850101111561093957600080fd5b8060208401602084013760009082016020015292959294509192505050565b600181811c9082168061096c57607f821691505b60208210810361098c57634e487b7160e01b600052602260045260246000fd5b50919050565b634e487b7160e01b600052602160045260246000fdfea2646970667358221220865cad0b816037ff3887e8268716e828f07ec4fcc7c41b77f76ee62ff2d521df64736f6c63430008180033","linkReferences":{}},"methodIdentifiers":{"eip712Domain()":"84b0196e","getDigest((address,address,uint256,uint256,address,address,uint256))":"46a0f31a","getSigner((address,address,uint256,uint256,address,address,uint256),bytes)":"9d353670"},"id":74}